:03000000020340B8
:10000300C0E0C0D0C000C001C002E4F540F541F536
:1000130042F543F5447A20E533A2E779047830E6E4
:1000230033F608D9FA79057840E636D4F608D9F9D3
:10003300DAE5D002D001D000D0D0D0E022C0E0C0B9
:10004300D0C000C001C002E4F540F541F542F543DC
:10005300F5447A20E533A2E779047830E633F608ED
:10006300D9FA79057840C0D0E6243320E70224D0BA
:1000730020E30224FDD0D033F608D9EADAD6D00241
:10008300D001D000D0D0D0E022C0E0C0D0C000C0AA
:1000930001C0027A207905C37844E613C0D030E763
:1000A3000224D030E30224FDF618D0D0D9EC790431
:1000B3007833E613F618D9FADADBD002D001D00090
:1000C300D0D0D0E022C0E0C0D0E5302534F530E513
:1000D300313535F531E5323536F532E5333537F53A
:1000E30033D0D0D0E022C0E0C0D0C3E5309534F5A2
:1000F30030E5319535F531E5329536F532E5339511
:1001030037F533D0D0D0E022C0E0C0D0C3E530957E
:1001130034E5319535E5329536E53395379200D0A0
:10012300D0D0E022C0E0C0D0C3E5349530E53595AA
:1001330031E5369532E53795339200D0D0D0E022C1
:10014300C0E0C0D0C200C3E53495307014E53595E6
:1001530031700EE53695327008E53795337002D26B
:1001630000D0D0D0E0221201432000030201272255
:1001730012014320000302010B22C0E0C0F0C0D0F3
:10018300C000C001C002C003E5308534F0A4F8A963
:10019300F0E5318534F0A429F9E435F0FAE530854A
:1001A30035F0A429F9E5F03AFAE433FBE532853476
:1001B300F0A42AFAE5F03BFBE5318535F0A42AFAF1
:1001C300E5F03BFBE5308536F0A42AFAE5F03BFB8E
:1001D300E5338534F0A42BFBE5328535F0A42BFB06
:1001E300E5318536F0A42BFBE5308537F0A42BFBF6
:1001F3008B338A3289318830D003D002D001D000CA
:10020300D0D0D0F0D0E022C0E0C0D0C000C001C048
:1002130002C003C0047C20E4F8F9FAFBC3E53033E1
:10022300F530E53133F531E53233F532E53333F586
:1002330033E833F8E933F9EA33FAEB33FBC3E895F0
:1002430034E99535EA9536EB95374013E89534F85C
:10025300E99535F9EA9536FAEB9537FB433001DC3E
:10026300BBD004D003D002D001D000D0D0D0E02244
:1002730085303485313585323685333722E530C5CF
:1002830034F530E531C535F531E532C536F532E5BE
:0602930033C537F53322EC
:10029900C0F9A4B0999282F88090900299E54054EF
:1002A9000F93F591E540C4540F93F592E541540F2E
:1002B90093F593E541C4540F93F594E542540F9394
:1002C900F58EE542C4540F93F58F227804C3E540B7
:1002D90033F540E54133F541E54233F542E5433332
:1002E900F543E54433F544D8E4EF4540F540E4F5FA
:1002F9004422781E794A7AFADAFED9FAD8F622AC7B
:10030900E8E5955403FDEC4D602B1202FBE5E8C3CB
:100319009C7022E5955403C39D701A7F10C3EC337A
:10032900FCED33FD4004DFF5800B1FD3E5E870FCDD
:10033900E59570FC22C32275817FE4F5E8F595F512
:1003490040F541F542F543F5441202A375F000D298
:10035900E8B4010575E800D2E9B4020575E800D2F0
:10036900EAB4030575E800D2EBB4040575E800D2D8
:10037900ECB4050575E800D2ED20FB1030FBFD0556
:10038900F0E5F0B406CB75F00002035A20FA1E30EE
:10039900FAFD12008C120273753000753100753246
:1003A900007533001200031202A302035A20F90256
:1003B900800302047030F9FD12008CE5F0B4000FDF
:1003C9001202801200C81200031202A302035AB4D7
:1003D900010F1202801200E91200031202A30203A4
:1003E9005AB4020F12028012017D1200031202A3F5
:1003F900020382B4030F12028012020A12000312CE
:1004090002A302035AB4041C120280AF3012020A7A
:1004190012017D1202738F301200E91200031202D9
:10042900A302035AB4050C12043C1200031202A3DE
:1004390002035AC0E0C0D074008530F0F53075343D
:10044900011200C885303412017D85F03412017320
:1004590030000DF5307534011200C8E5300204454D
:10046900F530D0D0D0E02212030850061202D4127F
:1004790002A302035A1203081202D41202A30203AE
:010489005A18
:00000001FF
